{
  "contractName": "SSPermissions",
  "abi": [
    {
      "constant": false,
      "inputs": [
        {
          "internalType": "bytes32",
          "name": "id",
          "type": "bytes32"
        },
        {
          "internalType": "address[]",
          "name": "users",
          "type": "address[]"
        }
      ],
      "name": "allow_access",
      "outputs": [],
      "payable": false,
      "stateMutability": "nonpayable",
      "type": "function"
    },
    {
      "constant": true,
      "inputs": [
        {
          "internalType": "address",
          "name": "user",
          "type": "address"
        },
        {
          "internalType": "bytes32",
          "name": "id",
          "type": "bytes32"
        }
      ],
      "name": "checkPermissions",
      "outputs": [
        {
          "internalType": "bool",
          "name": "",
          "type": "bool"
        }
      ],
      "payable": false,
      "stateMutability": "view",
      "type": "function"
    }
  ],
  "bytecode": "0x608060405234801561001057600080fd5b50610488806100206000396000f3fe608060405234801561001057600080fd5b50600436106100365760003560e01c80636f4145db1461003b578063b36a9a7c146100be575b600080fd5b6100bc6004803603604081101561005157600080fd5b81019080803590602001909291908035906020019064010000000081111561007857600080fd5b82018360208201111561008a57600080fd5b803590602001918460208302840111640100000000831117156100ac57600080fd5b9091929391929390505050610124565b005b61010a600480360360408110156100d457600080fd5b81019080803573ffffffffffffffffffffffffffffffffffffffff16906020019092919080359060200190929190505050610366565b604051808215151515815260200191505060405180910390f35b60008084815260200190815260200160002060000160009054906101000a900473ffffffffffffffffffffffffffffffffffffffff1673ffffffffffffffffffffffffffffffffffffffff163373ffffffffffffffffffffffffffffffffffffffff1614806101b957506000151560008085815260200190815260200160002060000160149054906101000a900460ff161515145b61022b576040517f08c379a00000000000000000000000000000000000000000000000000000000081526004018080602001828103825260168152602001807f53656e646572206e6f7420617574686f72697a65642e0000000000000000000081525060200191505060405180910390fd5b6000151560008085815260200190815260200160002060000160149054906101000a900460ff16151514156102af573360008085815260200190815260200160002060000160006101000a81548173ffffffffffffffffffffffffffffffffffffffff021916908373ffffffffffffffffffffffffffffffffffffffff1602179055505b60008090505b8282905081101561036057600160008086815260200190815260200160002060010160008585858181106102e557fe5b9050602002013573ffffffffffffffffffffffffffffffffffffffff1673ffffffffffffffffffffffffffffffffffffffff1673ffffffffffffffffffffffffffffffffffffffff16815260200190815260200160002060006101000a81548160ff02191690831515021790555080806001019150506102b5565b50505050565b60006001151560008084815260200190815260200160002060010160008573ffffffffffffffffffffffffffffffffffffffff1673ffffffffffffffffffffffffffffffffffffffff16815260200190815260200160002060009054906101000a900460ff161515148061043a57508273ffffffffffffffffffffffffffffffffffffffff1660008084815260200190815260200160002060000160009054906101000a900473ffffffffffffffffffffffffffffffffffffffff1673ffffffffffffffffffffffffffffffffffffffff16145b15610448576001905061044d565b600090505b9291505056fea265627a7a72315820316b15ca453962aec21644bac338780607b898452b96e41b1bfa7b19b860aa1364736f6c63430005100032",
  "source": "pragma solidity ^0.5.0;\n\ncontract SSPermissions {\n  struct Access {\n    address owner;\n    bool created;\n    mapping (address => bool) allowed;\n  }\n\n  mapping (bytes32 => Access) docs;\n\n  function allow_access(bytes32 id, address[] calldata users) external {\n    require(\n        msg.sender == docs[id].owner || docs[id].created == false,\n        \"Sender not authorized.\"\n        );\n\n    if (docs[id].created == false) docs[id].owner = msg.sender;\n    \n    for (uint i = 0; i < users.length; i++) {\n      docs[id].allowed[users[i]] = true;\n    }\n  }\n\n  function checkPermissions(address user, bytes32 id) public view returns (bool) {\n    if (docs[id].allowed[user] == true || docs[id].owner == user) return true;\n    return false;\n  }\n}\n",
  "sourcePath": "/home/julian/Uni-Projects/MasterTesi/truffle/contracts/SSPermissions.sol",
  "compiler": {
    "name": "solc",
    "version": "0.5.16+commit.9c3226ce.Emscripten.clang"
  },
  "schemaVersion": "3.0.23",
  "updatedAt": "2020-05-15T15:31:18.776Z",
  "devdoc": {
    "methods": {}
  },
  "userdoc": {
    "methods": {}
  }
}